:100000000C9434000C940A020C9456020C94510087
:100010000C9451000C9451000C9451000C9451001C
:100020000C9451000C9451000C9451000C9451000C
:100030000C9451000C9451000C9451000C945100FC
:100040000C9451000C9451000C9451000C945100EC
:100050000C9451000C9451000C9451000C945100DC
:100060000C9451000C94510011241FBECFEFD8E026
:10007000DEBFCDBF12E0A0E0B1E0EEE1FFE002C0E4
:1000800005900D92A43FB107D9F723E0A4EFB2E0A9
:1000900001C01D92A633B207E1F70E94E9020C9459
:1000A0008D070C94000090ED980F9A3018F490E0B2
:1000B000C09708959FEB980F963018F490E0C7977B
:1000C00008959FE9980F963020F490E087559109A4
:1000D00008958FEF9FEF0895CF93C82F0E94C1031B
:1000E0008EE40E94CE038C2F0E94DD030E94EC035D
:1000F000CF910895CF93C82F809135038F709C2F97
:10010000907F892B8460809335030E946C0085E08A
:100110008A95F1F70000809135038B7F809335033A
:100120000E946C008AE18A95F1F700C080E1C89FC7
:1001300090011124809135038F70822B846080930D
:1001400035030E946C0085E08A95F1F700008091EC
:1001500035038B7F809335030E946C008AE18A957A
:10016000F1F700C0CF910895CF93C82F88E0809316
:1001700035030E946C008C2F0E947A00CF91089565
:10018000CF93C82F809135038960809335030E94F7
:100190006C008C2F0E947A00CF910895CF93DF934B
:1001A000EC0103C021960E94C00088818111FACF22
:1001B000DF91CF91089581E00E94B400089584E01A
:1001C000809335030E946C0025E82A95F1F7000022
:1001D00083E00E94B40083E00E94B40083E00E94A8
:1001E000B40082E00E94B40088E20E94B4008FE074
:1001F0000E94B40081E00E94B40086E00E94B40036
:1002000080E80E94B40080E091E00E94CE008FEF71
:1002100093ED20E3815090402040E1F700C00000C2
:100220000E94DB0080E80E94B400089584B18360DE
:1002300084B985B18C7F85B908958AB1837F8AB9E5
:100240008BB18C608BB90895E9E6F0E080818A601B
:10025000808380818A7F80838DB383608DBB789417
:1002600008954AE050E060E070E00E94240708959D
:100270004AE050E060E070E00E9434070895CF93B8
:10028000DF93CDB7DEB72A970FB6F894DEBF0FBE67
:10029000CDBF80E009C0E1E0F0E0EC0FFD1FE80F0A
:1002A000F11D9FEF90838F5F8A30A8F3CE010196F6
:1002B0000E9438012A960FB6F894DEBF0FBECDBF5C
:1002C000DF91CF910895AC0190E008C0FA01E90FE9
:1002D000F11D208121502E3F28F09F5F9A30B0F30E
:1002E00081E0089580E00895DF92EF92FF920F93EE
:1002F0001F93CF93DF937C0164C08091C6008D3043
:1003000009F45FC08A3029F0E0913403EF3308F438
:1003100050C0E0913403F0E0EC50FD4F108244E017
:1003200050E060E171E084EF92E00E946304892B69
:1003300051F044E050E065E171E084EF92E00E940A
:100340006304892B89F58AE0F70111928A95E9F710
:10035000D12CC8EFD2E01BC0219688818032E1F316
:100360000E9453008C0189810E9453001123ACF03C
:1003700099239CF0F701ED0DF11D02951295107F68
:100380001027007F1027082B00832296D3948881A2
:10039000882319F0F4E0FD1500F710923403109251
:1003A000F40285E0D816A1F0109234031092F40202
:1003B00008C091E09E0F90933403F0E0EC50FD4FA5
:1003C00080838091C00088230CF497CF80E001C027
:1003D00081E0DF91CF911F910F91FF90EF90DF901F
:1003E00008950F931F93CF93DF938C01EB010E942D
:1003F000DB0080E80E94B400C8010E94CE0080ECBF
:100400000E94B400CE010E94CE00DF91CF911F91D7
:100410000F9108951F920F920FB60F9211242F93F0
:100420003F934F935F936F937F938F939F93AF937C
:10043000BF93EF93FF932FEF81EE94E02150804024
:100440009040E1F700C000000E943F016AE171E0C6
:100450008BE291E00E94F1018AE391E00E940204A4
:1004600085B1826085B92FEF8BE49DE121508040FA
:100470009040E1F700C0000085B18D7F85B965E54A
:1004800071E084E691E00E94F101FF91EF91BF914C
:10049000AF919F918F917F916F915F914F913F911C
:1004A0002F910F900FBE0F901F9018951F920F92D3
:1004B0000FB60F9211240F931F932F933F934F93D7
:1004C0005F936F937F938F939F93AF93BF93EF93BC
:1004D000FF93CF93DF93CDB7DEB72A97DEBFCDBFB3
:1004E0002FEF81EE94E0215080409040E1F700C072
:1004F000000064E671E084E791E00E94F10182E887
:1005000091E00E940204FE0131968AE0DF011D9213
:100510008A95E9F700E010E021C0CE0101960E9423
:100520007401882381F0CE0101960E9438016AE1AE
:1005300071E089EA91E00E94F1018AEB91E00E946A
:10054000020481E010C0BFEF23EC89E0B1502040ED
:100550008040E1F700C0000008531F4F003197E2D0
:100560001907D8F280E081110AC06EED71E086EEC5
:1005700091E00E94F10189EF91E00E940204AFEF47
:10058000B3ED20E3A150B0402040E1F700C00000EF
:100590006EE072E084E691E00E94F1012A960FB6C7
:1005A000F894DEBF0FBECDBFDF91CF91FF91EF91E9
:1005B000BF91AF919F918F917F916F915F914F917B
:1005C0003F912F911F910F910F900FBE0F901F9091
:1005D0001895CF93DF93CDB7DEB764970FB6F89435
:1005E000DEBF0FBECDBF87E690E00E94F0030E9401
:1005F00016010E941D010E9424010E94AD0381E0AA
:1006000090E00E94DF008AE192E00E9402046AE426
:1006100072E087E592E00E94F1012FEF8DE399E40B
:10062000215080409040E1F700C000006EE072E091
:1006300084E691E00E94F101CE0101960E94310111
:10064000CE010B962AE0FC0111922A95E9F70E944F
:100650007401882309F477C082E692E00E940204C4
:1006600065E0CE010B960E943904CE0101960E94EE
:100670003101CE0101960E946301882301F16CE6ED
:1006800072E087E792E00E94F10186E892E00E9422
:10069000020485B1826085B9FFEF2FE087E2F15057
:1006A00020408040E1F700C0000085B18D7F85B912
:1006B0006FE972E084E691E00E94F101C1CF45E06C
:1006C00050E0BE016F5F7F4FCE010B960E94560433
:1006D000892BD1F46DEA72E087EB92E00E94F10180
:1006E0008EEB92E00E94020485B1816085B99FEF94
:1006F000EDE3F9E49150E040F040E1F700C0000084
:1007000085B18E7F85B919C061ED72E087EB92E00B
:100710000E94F1018AED92E00E94020485B182609C
:1007200085B92FEF87E99AE3215080409040E1F7A7
:1007300000C0000085B18D7F85B96EE072E084E66F
:1007400091E00E94F101EFEFF3EC29E0E150F0407D
:100750002040E1F700C0000073CF83E087B988B97B
:10076000ECEBF0E080818B7F80831092B9008CE00D
:100770008093B80084E0808385E38A95F1F70000D8
:10078000089584EA8093BC008091BC008823E4F73C
:100790008091B900887F8830D9F708958093BB0095
:1007A00084E88093BC008091BC008823E4F78091AA
:1007B000B900887F8831D9F708958093BB0084E819
:1007C0008093BC008091BC008823E4F78091B9003D
:1007D000887F8832D9F7089584E98093BC00089512
:1007E0009093C5008093C40088E18093C10086E0A7
:1007F0008093C20008959091C00095FFFCCF809334
:10080000C6000895CF93DF93EC0103C021960E94A8
:10081000FB0388818111FACFDF91CF9108950F9367
:100820001F93CF93DF9300D000D000D0CDB7DEB7B9
:100830001F928F938CEE92E09F938F938E010F5FA8
:100840001F4F1F930F930E947104C8010E9402045E
:100850000F900F900F900F900F900F9026960FB65D
:10086000F894DEBF0FBECDBFDF91CF911F910F91E6
:1008700008950F931F93CF93DF938C01D62FC0E081
:100880000AC0F801EC0FF11D80810E940F0480E284
:100890000E94FB03CF5FCD17A0F387E492E00E9494
:1008A0000204DF91CF911F910F910895FB01DC01AC
:1008B00004C08D910190801921F441505040C8F737
:1008C000881B990B0895FB01DC014150504030F02A
:1008D0008D910190801919F40020B9F7881B990BAC
:1008E0000895AEE0B0E0E7E7F4E00C9464070D890A
:1008F0001E8986E08C831A8309838FEF9FE79E838E
:100900008D83AE01475E5F4F6F89788DCE01019672
:100910000E949304EF81F885E00FF11F10822E965C
:10092000E4E00C948007ABE0B0E0E9E9F4E00C947B
:1009300056076C017B018A01FC01178216828381B4
:1009400081FFCCC1CE0101963C01F6019381F701F4
:1009500093FD859193FF81917F01882309F4BAC1AA
:10096000853239F493FD859193FF81917F01853222
:1009700029F4B60190E00E948A06E7CF912C212C41
:10098000312CFFE1F315D8F08B3279F038F4803256
:1009900079F08332A1F4232D20611DC08D3261F0E6
:1009A000803369F4232D216016C0832D8260382E98
:1009B000E32DE4603E2E2AC0F32DF8601DC037FC05
:1009C0002DC020ED280F2A3040F08E32B9F436FCCD
:1009D00081C1232D2064322E19C036FE06C08AE064
:1009E000989E200D1124922E11C0EAE02E9E200D1B
:1009F0001124222EF32DF0623F2E08C08C3621F4F4
:100A0000832D8068382E02C0883641F4F70193FDAB
:100A1000859193FF81917F018111B3CF982F9F7DA5
:100A20009554933028F40C5F1F4F9FE399830DC0BA
:100A3000833631F0833771F0833509F059C021C016
:100A4000F801808189830E5F1F4F88248394912C45
:100A5000530113C02801F2E04F0E511CF801A08091
:100A6000B18036FE03C0692D70E002C06FEF7FEFEA
:100A7000C5010E947F064C018201F32DFF773F2EB6
:100A800016C0280122E0420E511CF801A080B1805E
:100A900036FE03C0692D70E002C06FEF7FEFC50125
:100AA0000E9474064C01F32DF0683F2E820133FC46
:100AB0001BC0822D90E088169906B0F4B60180E242
:100AC00090E00E948A062A94F4CFF50137FC8591C4
:100AD00037FE81915F01B60190E00E948A062110E5
:100AE0002A9421E0821A91088114910471F7E8C0D8
:100AF000843611F0893641F5F80137FE07C0608170
:100B00007181828193810C5F1F4F08C06081718168
:100B1000072E000C880B990B0E5F1F4FF32DFF76ED
:100B20003F2E97FF09C090958095709561957F4FF6
:100B30008F4F9F4FF0683F2E2AE030E0A3010E94C4
:100B4000C606882E861845C0853731F4232D2F7EA2
:100B5000B22E2AE030E025C0932D997FB92E8F3632
:100B6000C1F018F4883579F0B5C0803719F08837AE
:100B700021F0B0C0E92FE061BE2EB4FE0DC0FB2D08
:100B8000F460BF2E09C034FE0AC0292F2660B22EA1
:100B900006C028E030E005C020E130E002C020E1DE
:100BA00032E0F801B7FE07C06081718182819381D4
:100BB0000C5F1F4F06C06081718180E090E00E5F86
:100BC0001F4FA3010E94C606882E8618FB2DFF77B3
:100BD0003F2E36FE0DC0232D2E7FA22E891458F4F1
:100BE00034FE0BC032FC09C0832D8E7EA82E05C0BA
:100BF000B82CA32C03C0B82C01C0B92CA4FE0FC084
:100C0000FE01E80DF11D8081803321F49A2D997E3B
:100C1000A92E09C0A2FE06C0B394B39404C08A2DC5
:100C2000867809F0B394A3FC11C0A0FE06C0B214EC
:100C300088F4280C922C9B180EC0B21460F4B601F4
:100C400080E290E00E948A06B394F7CFB21418F4C1
:100C50002B1802C0982C212CA4FE10C0B60180E3F2
:100C600090E00E948A06A2FE17C0A1FC03C088E79C
:100C700090E002C088E590E0B6010CC08A2D86782D
:100C800059F0A1FE02C08BE201C080E2A7FC8DE218
:100C9000B60190E00E948A06891438F4B60180E318
:100CA00090E00E948A069A94F7CF8A94F301E80DA7
:100CB000F11D8081B60190E00E948A068110F5CF77
:100CC000222009F442CEB60180E290E00E948A061A
:100CD0002A94F6CFF6018681978102C08FEF9FEFAD
:100CE0002B96E2E10C947207FC0105906150704074
:100CF0000110D8F7809590958E0F9F1F0895FC01E5
:100D00006150704001900110D8F7809590958E0F3A
:100D10009F1F08950F931F93CF93DF93FB012381B0
:100D200021FD03C08FEF9FEF2CC022FF16C046812C
:100D30005781248135814217530744F4A081B18142
:100D40009D012F5F3F4F318320838C932681378114
:100D50002F5F3F4F3783268314C08B01EC01FB01CB
:100D60000084F185E02D0995892BE1F6D8011696CE
:100D70008D919C911797019617969C938E93169739
:100D8000CE01DF91CF911F910F910895FA01AA270B
:100D9000283051F1203181F1E8946F936E7F6E5FBE
:100DA0007F4F8F4F9F4FAF4FB1E03ED0B4E03CD06C
:100DB000670F781F891F9A1FA11D680F791F8A1F4F
:100DC000911DA11D6A0F711D811D911DA11D20D0B6
:100DD00009F468943F912AE0269F11243019305D70
:100DE0003193DEF6CF010895462F4770405D419361
:100DF000B3E00FD0C9F7F6CF462F4F70405D4A33AE
:100E000018F0495D31FD4052419302D0A9F7EACF75
:100E1000B4E0A6959795879577956795BA95C9F7A4
:100E200000976105710508959B01AC010A2E069497
:100E30005795479537952795BA95C9F7620F731F50
:100E4000841F951FA01D0895DC01CB01FC01F999B9
:100E5000FECF06C0F2BDE1BDF89A319600B40D9206
:100E600041505040B8F70895DC01A40FB51F415020
:100E7000504048F0CB01840F951F2E910E944507EA
:100E800041505040D0F70895262FF999FECF92BDDA
:100E900081BDF89A019700B4021639F01FBA20BD3F
:100EA0000FB6F894FA9AF99A0FBE08952F923F92CE
:100EB0004F925F926F927F928F929F92AF92BF926A
:100EC000CF92DF92EF92FF920F931F93CF93DF9316
:100ED000CDB7DEB7CA1BDB0B0FB6F894DEBF0FBE73
:100EE000CDBF09942A88398848885F846E847D84C0
:100EF0008C849B84AA84B984C884DF80EE80FD80C2
:100F00000C811B81AA81B981CE0FD11D0FB6F89437
:0E0F1000DEBF0FBECDBFED010895F894FFCFF8
:100F1E00496E697469616C697A696E672E2E2E004E
:100F2E005549443A007569643A002020202020205B
:100F3E002020202020202020202000454550524FE8
:100F4E004D20626F7272616461005B454550524F75
:100F5E004D5D205461726A65746120626F727261B8
:100F6E0064610D0A00706172612072656769737445
:100F7E007261720041636572717565207461726A87
:100F8E00657461004D6F646F20726567697374726A
:100F9E006F005B524547495354524F5D20456E7664
:100FAE00696172205549443A4141204242204343EF
:100FBE002044442045450D0A005461726A657461EF
:100FCE00206775617264616461005B5245474953E5
:100FDE0054524F5D204E75657661207461726A655C
:100FEE0074612067756172646164610D0A005469F1
:100FFE006D656F757400526567697374726F2063E7
:10100E00616E63656C61646F005B52454749535472
:10101E00524F5D2054696D656F75740D0A007061D5
:10102E0072612061636365736F003D3D3D204365D2
:10103E007272616475726120524649442028536968
:10104E006D756C6163696F6E2050696353696D4C89
:10105E00616229203D3D3D0D0A0053697374656D33
:10106E00612052464944004269656E76656E696438
:10107E006F005461726A6574613A20007265676927
:10108E00737472616461004E6F20686179207461BF
:10109E00726A6574610053696E207461726A657458
:1010AE006120726567697374726164610D0A007004
:1010BE0061726120726567697374726F0050455278
:1010CE004D495449444F0041636365736F0041635A
:1010DE006365736F207065726D697469646F0D0A54
:1010EE000044454E454741444F0041636365736F6D
:1010FE002064656E656761646F0D0A003078253077
:04110E003258000053
:00000001FF
